:020000040800F2
:1000000000280020111B00084D1700085517000894
:100010005D170008651700086D1700080000000054
:10002000000000000000000000000000751700083C
:1000300081170008000000008D17000899170008BC
:10004000591B0008591B0008591B0008591B0008C0
:10005000591B0008591B0008591B0008591B0008B0
:10006000591B0008591B0008591B0008591B0008A0
:10007000591B0008591B0008591B0008591B000890
:10008000591B0008591B0008591B0008591B000880
:10009000591B0008591B0008591B0008591B000870
:1000A000591B0008591B0008591B0008591B000860
:1000B000A5170008591B000800000000591B000884
:1000C000591B00080000000000000000591B000838
:1000D00000000000591B0008591B00080000000028
:1000E000591B0008591B0008591B0008000000009C
:1000F0000000000000000000000000000000000000
:0C01000000000000000000005FF808F1A3
:10010C0010B5054C237833B9044B13B10448AFF345
:10011C0000800123237010BD780000200000000037
:10012C009031000808B5034B1BB103490348AFF3EA
:10013C00008008BD000000007C0000209031000809
:10014C0080B400AF064BDB68012B04D1044B0022BA
:10015C00DA60012300E000231846BD4680BC7047DE
:10016C009800002080B400AF064B1B68012B04D113
:10017C00044B00221A60012300E000231846BD4600
:10018C0080BC70479800002080B400AF064B5B68C1
:10019C00012B04D1044B00225A60012300E0002300
:1001AC001846BD4680BC70479800002080B400AF54
:1001BC00064B9B68012B04D1044B00229A6001234F
:1001CC0000E000231846BD4680BC70479800002014
:1001DC0080B582B000AF00237B6012E04C4A7B6894
:1001EC0052F823204B497B6841F823204A4A7B680C
:1001FC0052F8232046497B6841F823207B68013361
:10020C007B607B68032BE9DD0121444801F08CFF06
:10021C0003461A46404B1A600221404801F084FF05
:10022C0003461A463C4B5A6004213C4801F07CFFC3
:10023C0003461A46384B9A600821384801F074FF7F
:10024C0003461A46344BDA6000233B6058E0304AD0
:10025C003B6852F8232030493B6851F823309A42CE
:10026C004BD12B4A3B6852F823202A493B6851F862
:10027C0023309A4241D1274A3B6852F8232028491F
:10028C003B6851F823309A4219D0224A3B6852F805
:10029C00232023493B6841F82320214A3B6852F82C
:1002AC002330002B29D11F4A3B684FF4FA7142F8D6
:1002BC0023101D4A3B68012142F823101DE0194A06
:1002CC003B6852F823305A1E16493B6841F82320EC
:1002DC00144A3B6852F82330002B0ED1114A3B686C
:1002EC004FF4FA7142F823100D4A3B6852F8233050
:1002FC00002B02D10D4B01221A603B6801333B608D
:10030C003B68032BA3DD00BF00BF0837BD4680BD93
:10031C00100000202000002000000020000C0140F4
:10032C0030000020400000209800002094000020A5
:10033C0080B500AFA04B1B68013B042B00F270830F
:10034C0001A252F823F000BF69030008BF030008A4
:10035C0031050008F7060008A9080008974B1B6830
:10036C00974A82FB03129211DB17D31A954A13603A
:10037C00954B1B68924A82FB03129211DB17D31A1E
:10038C00924A136001F018FA00F036FE8A4B0222F2
:10039C001A60FA21002001F02DF98B4B1B681946CD
:1003AC00012001F027F94FF47A71022001F022F9B3
:1003BC003FE3844B1B68864A82FB03129210DB17C7
:1003CC00D31A844A13607F4B1968814B83FB01233A
:1003DC009A10CB17D21A13469B0013445B00CA1A0F
:1003EC007D4B1A60794B1B68794A82FB0312921081
:1003FC00DB17D31A794A1360744B1968744B83FB5F
:10040C0001239A10CB17D21A13469B0013445B009E
:10041C00CA1A734B1A60734B1A68724B1B68012B08
:10042C0002D16C4B1B6801E06B4B1B6819461046E4
:10043C0000F04CFF6B4B1A686A4B1B68012B02D106
:10044C00664B1B6801E0664B1B681946104600F0B2
:10045C0069FF01F0F7F9644B1B68012B0CD1614B60
:10046C001B68012B01D1022300E001235D4A1360BC
:10047C00FA21002001F0BEF85B4B9B68012B0ED1DA
:10048C00504B1B68013B4F4A1360504B1B68013BA0
:10049C004E4A13604FF47A71022001F0ABF8524BC4
:1004AC005B68012B12D1444B03221A604F4B1B6823
:1004BC001946012001F09EF84C4B1B68404A82FB08
:1004CC0003129211DB17D31A404A1360FFF74AFE4E
:1004DC000346012B10D100F08FFD374B0A221A6016
:1004EC00434B02221A60394B1A68364B1B689342F5
:1004FC00A8BF13463F4A1360FFF722FE0346012BA9
:10050C0040F090823A4B02221A60304B1A682D4B05
:10051C001B689342A8BF1346364A1360264B13221E
:10052C001A607FE2274B1B68294A82FB0312921048
:10053C00DB17D31A274A1360224B1968244B83FB11
:10054C0001239A10CB17D21A13469B0013445B005D
:10055C00CA1A214B1A601D4B1B681D4A82FB0312E1
:10056C009210DB17D31A1D4A1360184B1968184BDD
:10057C0083FB01239A10CB17D21A13469B0013440A
:10058C005B00CA1A164B1A60164B1A68154B1B687F
:10059C00012B02D10F4B1B6801E00F4B1B68194656
:1005AC00104600F093FE0F4B1A680E4B1B68012B84
:1005BC0022D10A4B1B6821E0580000205C0000206F
:1005CC00D34D6210A800002064000020AC00002075
:1005DC0067666666B0000020B4000020B8000020FA
:1005EC00BC000020500000202401002060000020EE
:1005FC0068000020D8000020984B1B681946104654
:10060C0000F090FE01F064F9954B1B68012B0CD1A6
:10061C00944B1B68012B01D1022300E00123914A6A
:10062C001360FA21002000F0E5FF8D4B9B68012B35
:10063C000ED18D4B1B68013B8B4A13608B4B1B6897
:10064C00013B8A4A13604FF47A71022000F0D2FF0A
:10065C00834B5B68012B1CD1854B04221A60854BA4
:10066C001B681946012000F0C5FF824B1B68824AAB
:10067C0082FB03129211DB17D31A7B4A13607F4B58
:10068C001B687D4A82FB03129211DB17D31A774A3F
:10069C001360FFF767FD0346012B10D100F0ACFC93
:1006AC00734B0B221A60764B03221A606F4B1A683D
:1006BC006D4B1B689342A8BF1346724A1360FFF739
:1006CC003FFD0346012B40F0AF816D4B02221A60B7
:1006DC00664B1A68644B1B689342A8BF1346694A61
:1006EC001360634B13221A609EE15F4B1B68664AD2
:1006FC0082FB03129210DB17D31A644A13605A4B15
:10070C001968614B83FB01239A10CB17D21A13463D
:10071C009B0013445B00CA1A5D4B1A60534B1B6859
:10072C00594A82FB03129210DB17D31A594A1360F1
:10073C004E4B1968544B83FB01239A10CB17D21ADA
:10074C0013469B0013445B00CA1A444B1A60454B7A
:10075C001A68444B1B68012B02D14C4B1B6801E0FF
:10076C004B4B1B681946104600F0B0FD3D4B1A6808
:10077C003C4B1B68012B02D1464B1B6801E0374BED
:10078C001B681946104600F0CDFD01F0E7F8344B1C
:10079C001B68012B0CD1334B1B68012B01D102239D
:1007AC0000E001232F4A1360FA21002000F022FF01
:1007BC002B4B9B68012B0ED12B4B1B68013B2A4A00
:1007CC0013602A4B1B68013B284A13604FF47A7163
:1007DC00022000F00FFF224B5B68012B12D1244B3F
:1007EC0005221A602C4B1B681946012000F002FFF1
:1007FC00294B1B68204A82FB03129211DB17D31A78
:10080C00194A1360FFF7AEFC0346012B10D100F020
:10081C00F3FB174B0C221A60194B04221A60134B72
:10082C001A68114B1B689342A8BF1346154A1360F4
:10083C00FFF786FC0346012B40F0F880104B022298
:10084C001A600A4B1A68084B1B689342A8BF1346E0
:10085C000C4A1360064B13221A60E7E0BC00002020
:10086C002401002050000020A8000020AC00002033
:10087C005800002064000020D34D62105C00002062
:10088C0068000020D800002067666666B000002073
:10089C00B4000020B800002060000020664B1B68EC
:1008AC00664A82FB03129210DB17D31A644A136058
:1008BC00614B1968614B83FB01239A10CB17D21A39
:1008CC0013469B0013445B00CA1A5E4B1A605E4BC6
:1008DC001B685A4A82FB03129210DB17D31A5B4A2D
:1008EC001360594B1968554B83FB01239A10CB1796
:1008FC00D21A13469B0013445B00CA1A544B1A605D
:10090C00544B1A68534B1B68012B02D14C4B1B6880
:10091C0001E04C4B1B681946104600F0D7FC4D4BC0
:10092C001A684C4B1B68012B02D1484B1B6801E029
:10093C00474B1B681946104600F0F4FC01F054F8C4
:10094C00454B1B68012B0CD1424B1B68012B01D171
:10095C00022300E001233F4A1360FA21002000F03B
:10096C0049FE3D4B9B68012B0ED1334B1B68013B61
:10097C00314A1360344B1B68013B334A13604FF40C
:10098C007A71022000F036FE334B5B68012B1CD1D0
:10099C00324B02221A60324B1B681946012000F0C0
:1009AC0029FE2F4B1B682F4A82FB03129211DB1777
:1009BC00D31A254A13602C4B1B682A4A82FB03125C
:1009CC009211DB17D31A1C4A1360FFF7CBFB0346BB
:1009DC00012B10D100F010FB204B0D221A60234B81
:1009EC0005221A60184B1A68134B1B689342A8BF58
:1009FC0013461F4A1360FFF7A3FB0346012B17D1C5
:100A0C001A4B02221A60104B1A680B4B1B6893424C
:100A1C00A8BF1346164A1360104B13221A6007E046
:100A2C0000BF06E000BF04E000BF02E000BF00E032
:100A3C0000BF00BF80BD00BFA800002067666666CF
:100A4C00B0000020B4000020AC000020B800002052
:100A5C00BC00002050000020240100205800002081
:100A6C0064000020D34D62105C0000206800002060
:100A7C00D800002080B500AF4A4B1B680A3B032B03
:100A8C0000F2848001A252F823F000BFA90A0008EA
:100A9C00E50A0008210B00085D0B000800F0D2FEEF
:100AAC00FFF760FB0346012B02D13E4B0B221A6071
:100ABC00FFF746FB0346012B6AD13B4B1B68394AB7
:100ACC0013603A4B1B684FF47A7202FB03F319461E
:100ADC00012000F08FFD5BE000F0FAFEFFF742FB17
:100AEC000346012B02D12F4B0C221A60FFF728FB77
:100AFC000346012B4ED12C4B1B682A4A13602B4BFF
:100B0C001B684FF47A7202FB03F31946012000F0C4
:100B1C0071FD3FE000F022FFFFF724FB0346012BA1
:100B2C0002D1204B0D221A60FFF70AFB0346012B62
:100B3C0032D11D4B1B681B4A13601C4B1B684FF4B6
:100B4C007A7202FB03F31946012000F053FD23E0F7
:100B5C0000F04AFFFFF706FB0346012B02D1114BB5
:100B6C000A221A60FFF7ECFA0346012B16D10E4B42
:100B7C001B680C4A13600D4B1B684FF47A7202FB16
:100B8C0003F31946012000F035FD07E000BF06E035
:100B9C0000BF04E000BF02E000BF00E000BF00BFE8
:100BAC0080BD00BF5800002068000020D800002045
:100BBC0080B500AF9A4B1B68133B032B00F2F481FA
:100BCC0001A252F823F000BFE50B0008110C00083D
:100BDC001F0D0008690E000800F0EEFD00F00CFA85
:100BEC00FA21002000F006FD8D4B14221A608D4B6B
:100BFC001B688D4A82FB03129211DB17D31A8B4AA6
:100C0C001360D8E1894B1B68894A82FB031292104E
:100C1C00DB17D31A874A1360844B1968844B83FB08
:100C2C0001239A10CB17D21A13469B0013445B0076
:100C3C00CA1A814B1A60814B1A68804B1B68012BB6
:100C4C0002D17C4B1B6801E07B4B1B68194610469C
:100C5C0000F03CFBFFF798FA0346012B0BD1734BCA
:100C6C001B680133714A1360704B1B68632B02DDE8
:100C7C006E4B00221A60FFF799FA0346012B08D13C
:100C8C006A4B1B68002B04DD684B1B68013B674AF1
:100C9C001360FFF767FA0346012B09D1684B1B68F9
:100CAC001946012000F0A6FC664B1B685C4A1360D9
:100CBC00654B1B68012B0ED1FA21002000F09AFC29
:100CCC0000F0D8FE5D4B1B68012B01D1022300E024
:100CDC0001235A4A1360FFF733FA0346002B00F046
:100CEC00658100F069FDFA21002000F083FC4F4B78
:100CFC001B68564A1360564B1B684B4A82FB031207
:100D0C009211DB17D31A494A1360454B15221A600E
:100D1C004CE1464B1B68464A82FB03129210DB17D0
:100D2C00D31A444A1360414B1968414B83FB01238E
:100D3C009A10CB17D21A13469B0013445B00CA1AA5
:100D4C003D4B1A603D4B1A683C4B1B68012B02D182
:100D5C00384B1B6801E0384B1B681946104600F0F5
:100D6C00B5FAFFF711FA0346012B0BD12F4B1B6879
:100D7C0001332E4A13602D4B1B68632B02DD2B4B6A
:100D8C0000221A60FFF712FA0346012B08D1274BF9
:100D9C001B68002B04DD254B1B68013B234A1360A9
:100DAC00FFF7E0F90346012B09D1254B1B681946C7
:100DBC00012000F01FFC234B1B68194A1360224BC7
:100DCC001B68012B0ED1FA21002000F013FC00F05F
:100DDC0069FE1A4B1B68012B01D1022300E0012391
:100DEC00164A1360FFF7ACF90346002B00F0E080C5
:100DFC0000F0E2FCFA21002000F0FCFB0B4B1B681E
:100E0C00144A1360144B1B68074A82FB031292119D
:100E1C00DB17D31A054A1360014B16221A60C7E080
:100E2C00580000205C000020D34D6210C000002050
:100E3C0067666666C4000020C800002054000020CD
:100E4C00D80000206800002024010020CC000020E5
:100E5C0060000020D400002064000020574B1B6869
:100E6C00574A82FB03129210DB17D31A554A1360B0
:100E7C00524B1968524B83FB01239A10CB17D21A91
:100E8C0013469B0013445B00CA1A4F4B1A604F4B1E
:100E9C001A684E4B1B68012B02D14A4B1B6801E0B0
:100EAC00494B1B681946104600F010FAFFF76CF915
:100EBC000346012B0BD1414B1B6801333F4A136096
:100ECC003E4B1B68632B02DD3C4B00221A60FFF784
:100EDC006DF90346012B08D1384B1B68002B04DD40
:100EEC00364B1B68013B354A1360FFF73BF9034651
:100EFC00012B09D1364B1B681946012000F07AFBF7
:100F0C00344B1B68344A1360344B1B68012B0ED1D5
:100F1C00FA21002000F06EFB00F0DCFD2B4B1B686F
:100F2C00012B01D1022300E00123284A1360FFF7B3
:100F3C0007F90346002B3DD0FA21002000F05AFBA4
:100F4C001E4B1B68264A13601C4B00221A60244B54
:100F5C001B68002B24DD234B1B68002B20DD204B52
:100F6C001A68204B1B681A441F4B1B689A4217D1F6
:100F7C001D4B1B684FF47A7202FB03F31B4A136080
:100F8C00174B1B684FF47A7202FB03F3184A136079
:100F9C00144B1B684FF47A7202FB03F3154A13606F
:100FAC000D4B01221A6005E000BF04E000BF02E017
:100FBC0000BF00E000BF00BF80BD00BFC00000202C
:100FCC0067666666C4000020C8000020540000203C
:100FDC00D8000020680000205800002024010020C8
:100FEC00D0000020D4000020CC0000205C000020A9
:100FFC00640000206000002080B500AF00224FF498
:10100C008071334801F0A7F800224FF4007130488A
:10101C0001F0A1F800224FF480612D4801F09BF8FB
:10102C0000224FF400612A4801F095F800224FF499
:10103C008051274801F08FF800224FF400512448CA
:10104C0001F089F800224FF48041214801F083F827
:10105C0000224FF480511F4801F07DF800224FF41C
:10106C0000411C4801F077F800224FF40041184869
:10107C0001F071F800224FF40051174801F06BF8A1
:10108C0000224FF48041144801F065F800224FF41F
:10109C000041114801F05FF800224FF400510D4857
:1010AC0001F059F801222021094801F054F80122DD
:1010BC001021074801F04FF801228021044801F06B
:1010CC004AF801224021024801F045F800BF80BDDA
:1010DC00000C0140000801400010014080B586B0B2
:1010EC0000AF78603960754A07F10C0307CA03C377
:1010FC001A807B68012B6ED107F10C023B681344FC
:10110C001B7803F00103DBB21A464FF480716C4874
:10111C0001F021F807F10C023B6813441B785B10BB
:10112C00DBB203F00103DBB21A464FF400716448E2
:10113C0001F011F807F10C023B6813441B789B106B
:10114C00DBB203F00103DBB21A464FF480615C485A
:10115C0001F001F807F10C023B6813441B78DB101B
:10116C00DBB203F00103DBB21A464FF400615448C2
:10117C0000F0F1FF07F10C023B6813441B781B11C4
:10118C00DBB203F00103DBB21A464FF480514C483A
:10119C0000F0E1FF07F10C023B6813441B785B1174
:1011AC00DBB203F00103DBB21A464FF400514448A2
:1011BC0000F0D1FF07F10C023B6813441B789B1124
:1011CC00DBB203F00103DBB21A464FF480413C481A
:1011DC0000F0C1FF6DE007F10C023B6813441B7873
:1011EC0003F00103DBB21A464FF48051354800F08E
:1011FC00B2FF07F10C023B6813441B785B10DBB2A7
:10120C0003F00103DBB21A464FF400412D4800F005
:10121C00A2FF07F10C023B6813441B789B10DBB256
:10122C0003F00103DBB21A464FF40041244800F0EE
:10123C0092FF07F10C023B6813441B78DB10DBB206
:10124C0003F00103DBB21A464FF400511E4800F0C4
:10125C0082FF07F10C023B6813441B781B11DBB2B5
:10126C0003F00103DBB21A464FF48041164800F03C
:10127C0072FF07F10C023B6813441B785B11DBB265
:10128C0003F00103DBB21A464FF400410E4800F0A4
:10129C0062FF07F10C023B6813441B789B11DBB215
:1012AC0003F00103DBB21A464FF40051054800F07D
:1012BC0052FF00BF1837BD4680BD00BFA8310008E3
:1012CC00000C0140000801400010014080B582B0C4
:1012DC0000AF786039607B68012B0ED10122202190
:1012EC000F4800F038FF002210210D4800F033FFAA
:1012FC0039680120FFF7F2FE0DE0012210210848A9
:10130C0000F029FF00222021054800F024FF396855
:10131C000120FFF7E3FE00BF0837BD4680BD00BFCC
:10132C00000C014080B582B000AF786039607B68FA
:10133C00012B0ED1012280210F4800F00CFF00225E
:10134C0040210D4800F007FF39680220FFF7C6FE68
:10135C000DE001224021084800F0FDFE0022802112
:10136C00054800F0F8FE39680220FFF7B7FE00BF11
:10137C000837BD4680BD00BF000C014080B500AFF2
:10138C0000F0E6FB00F016F800F09CF800F04EF8C8
:10139C00064801F03FFB064B01221A60FEF7C8FF1E
:1013AC00FFF706FCFFF766FB00BFF7E7DC00002049
:1013BC005800002080B590B000AF07F11803282228
:1013CC000021184601F0B2FE3B1D00221A605A6043
:1013DC009A60DA601A610223BB610123BB6210239D
:1013EC00FB6200237B6307F11803184600F0E4FE50
:1013FC000346002B01D000F0F7F80F237B6000238D
:10140C00BB600023FB6000233B6100237B613B1D21
:10141C000021184601F052F90346002B01D000F0D0
:10142C00E3F800BF4037BD4680BD000080B586B0F4
:10143C0000AF07F1080300221A605A609A60DA6064
:10144C003B4600221A605A601D4B4FF080421A60D6
:10145C001B4B41F63F725A60194B00229A60184B95
:10146C000922DA60164B00221A61154B00229A6190
:10147C00134801F07FFA0346002B01D000F0B4F8BA
:10148C004FF48053BB6007F1080319460C4801F078
:10149C00FDFB0346002B01D000F0A6F800233B60B7
:1014AC0000237B603B461946054801F0D5FD0346F9
:1014BC00002B01D000F098F800BF1837BD4680BD56
:1014CC00DC00002080B588B000AF07F110030022CB
:1014DC001A605A609A60DA60394B9B69384A43F05B
:1014EC0010039361364B9B6903F01003FB60FB68A0
:1014FC00334B9B69324A43F004039361304B9B6935
:10150C0003F00403BB60BB682D4B9B692C4A43F072
:10151C00080393612A4B9B6903F008037B607B688B
:10152C0000224FF46041274800F015FE00224BF6D4
:10153C00FF71254800F00FFE00224FF6F071234892
:10154C0000F009FE4FF460433B6101237B610023F3
:10155C00BB610223FB6107F110031946194800F027
:10156C0067FC4BF6FF733B6101237B610023BB617E
:10157C000223FB6107F110031946134800F058FCD5
:10158C000F233B6100237B610123BB6107F1100337
:10159C0019460E4800F04CFC4FF6F0733B610123EA
:1015AC007B610023BB610223FB6107F11003194629
:1015BC00064800F03DFC00BF2037BD4680BD00BF93
:1015CC00001002400010014000080140000C0140D6
:1015DC0080B582B000AF786000F02CF8FEF7F8FD13
:1015EC0000BF0837BD4680BD80B400AF72B600BFE7
:1015FC0000BFFDE780B483B000AF786039600A4A61
:10160C007B68002142F823103B68084A82FB0312D6
:10161C009210DB17D21A06497B6841F8232000BFD1
:10162C000C37BD4680BC7047240100206766666697
:10163C004C01002080B483B000AF00237B601CE021
:10164C00124A7B6852F82330002B08DD0F4A7B6866
:10165C0052F823305A1E0D497B6841F823200B4A5F
:10166C007B6852F82330002B04DC094A7B6801218B
:10167C0042F823107B6801337B607B68092BDFDD2C
:10168C0000BF00BF0C37BD4680BC70474C0100202A
:10169C002401002080B485B000AF154B9B69144A1F
:1016AC0043F001039361124B9B6903F00103BB6090
:1016BC00BB680F4BDB690E4A43F08053D3610C4B74
:1016CC00DB6903F080537B607B680A4B5B68FB60D3
:1016DC00FB6823F0E063FB60FB6843F08063FB6016
:1016EC00044AFB68536000BF1437BD4680BC70478A
:1016FC00001002400000014080B584B000AF78605B
:10170C007B681B68B3F1804F13D10C4BDB690B4A20
:10171C0043F00103D361094BDB6903F00103FB6068
:10172C00FB68002200211C2000F04BFB1C2000F069
:10173C0064FB00BF1037BD4680BD00BF00100240E7
:10174C0080B400AF00BFFDE780B400AF00BFFDE781
:10175C0080B400AF00BFFDE780B400AF00BFFDE771
:10176C0080B400AF00BFFDE780B400AF00BFBD4642
:10177C0080BC704780B400AF00BFBD4680BC7047D2
:10178C0080B400AF00BFBD4680BC704780B500AFD1
:10179C0000F024FA00BF80BD80B500AF024801F014
:1017AC0085F900BF80BD00BFDC00002080B400AF15
:1017BC0000BFBD4680BC704780B500AF0022012140
:1017CC001F4800F0C8FC002202211D4800F0C3FC99
:1017DC00002204211A4800F0BEFC002208211848FF
:1017EC0000F0B9FC00221021154800F0B4FC0022D6
:1017FC002021134800F0AFFC00224021104800F0DB
:10180C00AAFC002280210E4800F0A5FC00224FF417
:10181C0080710B4800F09FFC00224FF400710848C7
:10182C0000F099FC00224FF48061054800F093FC15
:10183C0000224FF40061024800F08DFC00BF80BD17
:10184C000008014080B500AF002201211F4800F0C4
:10185C0082FC002202211D4800F07DFC01220421A3
:10186C001A4800F078FC01220821184800F073FC9B
:10187C0000221021154800F06EFC00222021134894
:10188C0000F069FC00224021104800F064FC0022AA
:10189C0080210E4800F05FFC01224FF480710B4850
:1018AC0000F059FC01224FF40071084800F053FC81
:1018BC0000224FF48061054800F04DFC00224FF4EB
:1018CC000061024800F047FC00BF80BD00080140E9
:1018DC0080B500AF002201211F4800F03CFC012222
:1018EC0002211D4800F037FC002204211A4800F0A8
:1018FC0032FC01220821184800F02DFC0022102196
:10190C00154800F028FC00222021134800F023FC8D
:10191C0000224021104800F01EFC012280210E48BC
:10192C0000F019FC00224FF480710B4800F013FCFE
:10193C0001224FF40071084800F00DFC00224FF416
:10194C008061054800F007FC00224FF4006102485A
:10195C0000F001FC00BF80BD0008014080B500AF65
:10196C00012201211F4800F0F6FB002202211D4834
:10197C0000F0F1FB002204211A4800F0ECFB0022DD
:10198C000821184800F0E7FB00221021154800F050
:10199C00E2FB01222021134800F0DDFB0122402153
:1019AC00104800F0D8FB002280210E4800F0D3FB39
:1019BC0000224FF480710B4800F0CDFB00224FF455
:1019CC000071084800F0C7FB00224FF48061054805
:1019DC0000F0C1FB01224FF40061024800F0BBFB98
:1019EC0000BF80BD0008014080B500AF012201217D
:1019FC001F4800F0B0FB002202211D4800F0ABFB99
:101A0C00002204211A4800F0A6FB002208211848E5
:101A1C0000F0A1FB01221021154800F09CFB0022D4
:101A2C002021134800F097FB01224021104800F0C0
:101A3C0092FB002280210E4800F08DFB00224FF417
:101A4C0080710B4800F087FB00224FF400710848AE
:101A5C0000F081FB01224FF48061054800F07BFB14
:101A6C0000224FF40061024800F075FB00BF80BDFE
:101A7C000008014080B500AF0121094800F083FB4C
:101A8C000821074800F07FFB4021054800F07BFB54
:101A9C004FF40071024800F076FB00BF80BD00BF20
:101AAC000008014080B500AF0221094800F06BFB33
:101ABC001021074800F067FB8021054800F063FB0C
:101ACC004FF48061024800F05EFB00BF80BD00BF98
:101ADC000008014080B500AF0421094800F053FB19
:101AEC002021074800F04FFB4FF48071044800F0B0
:101AFC004AFB4FF40061024800F045FB00BF80BD7B
:101B0C0000080140FFF752FE0B480C490C4A002319
:101B1C0002E0D458C4500433C4188C42F9D3094A97
:101B2C00094C002301E013600432A242FBD301F004
:101B3C0005FBFFF723FC7047000000207800002015
:101B4C00E03100087800002078010020FEE700005A
:101B5C0080B500AF084B1B68074A43F010031360B5
:101B6C00032000F023F90F2000F008F8FFF792FD96
:101B7C000023184680BD00BF0020024080B582B013
:101B8C0000AF7860124B1A68124B1B7819464FF451
:101B9C007A73B3FBF1F3B2FBF3F3184600F03BF9A5
:101BAC000346002B01D001230EE07B680F2B0AD8D3
:101BBC00002279684FF0FF3000F003F9064A7B6889
:101BCC001360002300E0012318460837BD4680BD92
:101BDC006C000020740000207000002080B400AF66
:101BEC00054B1B781A46054B1B681344034A1360BC
:101BFC0000BFBD4680BC70477400002074010020FB
:101C0C0080B400AF024B1B681846BD4680BC7047C1
:101C1C007401002080B485B000AF78607B6803F05D
:101C2C000703FB600C4BDB68BB60BA684FF6FF0325
:101C3C001340BB60FB681A02BB68134343F0BF63DD
:101C4C0043F40033BB60044ABB68D36000BF143755
:101C5C00BD4680BC704700BF00ED00E080B400AF13
:101C6C00044BDB681B0A03F007031846BD4680BC17
:101C7C00704700BF00ED00E080B483B000AF0346B6
:101C8C00FB7197F90730002B0BDBFB7903F01F027C
:101C9C00064997F907305B09012000FA02F241F876
:101CAC00232000BF0C37BD4680BC704700E100E02C
:101CBC0080B483B000AF03463960FB7197F90730ED
:101CCC00002B0ADB3B68DAB20C4997F9073012019A
:101CDC00D2B20B4483F800230AE03B68DAB208491D
:101CEC00FB7903F00F03043B1201D2B20B441A76BA
:101CFC0000BF0C37BD4680BC704700BF00E100E060
:101D0C0000ED00E080B489B000AFF860B9607A6093
:101D1C00FB6803F00703FB61FB69C3F10703042BAA
:101D2C0028BF0423BB61FB690433062B02D9FB6972
:101D3C00033B00E000237B614FF0FF32BB6902FAEA
:101D4C0003F3DA43BB681A407B699A404FF0FF31CA
:101D5C007B6901FA03F3D9437B680B4013431846A4
:101D6C002437BD4680BC704780B582B000AF786028
:101D7C007B68013BB3F1807F01D301230FE00A4A5A
:101D8C007B68013B53600F214FF0FF30FFF790FF52
:101D9C00054B00229A60044B07221A600023184658
:101DAC000837BD4680BD00BF10E000E080B582B0B2
:101DBC0000AF78607868FFF72DFF00BF0837BD468D
:101DCC0080BD80B586B000AF0346B9607A60FB7306
:101DDC0000237B61FFF742FF78617A68B968786904
:101DEC00FFF790FF024697F90F3011461846FFF7A0
:101DFC005FFF00BF1837BD4680BD80B582B000AF15
:101E0C000346FB7197F907301846FFF735FF00BF03
:101E1C000837BD4680BD80B582B000AF7860786869
:101E2C00FFF7A2FF034618460837BD4680BD0000E9
:101E3C0080B48BB000AF7860396000237B620023E4
:101E4C003B6261E101227B6A02FA03F3FB613B68AE
:101E5C001B68FA691340BB61BA69FB699A4240F08E
:101E6C0050813B685B68974A93425ED0954A934297
:101E7C0075D8954A934258D0934A93426FD8934A57
:101E8C00934252D0914A934269D8914A93424CD092
:101E9C008F4A934263D88F4A934246D08D4A9342DD
:101EAC005DD8122B2AD8122B59D801A252F823F044
:101EBC00371F0008111F0008231F0008651F0008AA
:101ECC006B1F00086B1F00086B1F00086B1F0008BE
:101EDC006B1F00086B1F00086B1F00086B1F0008AE
:101EEC006B1F00086B1F00086B1F00086B1F00089E
:101EFC006B1F0008191F00082D1F0008764A93421B
:101F0C0013D02CE03B68DB683B6229E03B68DB6864
:101F1C0004333B6224E03B68DB6808333B621FE020
:101F2C003B68DB680C333B621AE03B689B68002B18
:101F3C0002D104233B6213E03B689B68012B05D163
:101F4C0008233B627B68FA691A6109E008233B624B
:101F5C007B68FA695A6103E000233B6200E000BF32
:101F6C00BB69FF2B01D87B6801E07B6804337B6184
:101F7C00BB69FF2B02D87B6A9B0002E07B6A083BA3
:101F8C009B003B617B691A680F213B6901FA03F3E3
:101F9C00DB431A40396A3B6901FA03F31A437B6944
:101FAC001A603B685B6803F08053002B00F0A9803B
:101FBC004A4B9B69494A43F001039361474B9B6928
:101FCC0003F00103BB60BB68454A7B6A9B08023384
:101FDC0052F82330FB607B6A03F003039B000F2253
:101FEC0002FA03F3DB43FA681340FB607B683D4A5B
:101FFC0093420DD07B683C4A934207D07B683B4AA6
:10200C00934201D1022304E0032302E0012300E008
:10201C0000237A6A02F0030292009340FA68134399
:10202C00FB602F497B6A9B080233FA6841F8232036
:10203C003B685B6803F48013002B06D02C4B9A682A
:10204C002B49BB6913438B6006E0294B9A68BB692B
:10205C00DB43274913408B603B685B6803F4001338
:10206C00002B06D0224BDA682149BB691343CB60A5
:10207C0006E01F4BDA68BB69DB431D491340CB609C
:10208C003B685B6803F40033002B06D0184B5A688E
:10209C001749BB6913434B6006E0154B5A68BB6983
:1020AC00DB43134913404B603B685B6803F480339C
:1020BC00002B1FD00E4B1A680D49BB6913430B60E4
:1020CC001FE000BF00003210000031100000221091
:1020DC00000021100000121000001110001002402E
:1020EC000000014000080140000C014000100140BC
:1020FC00000401400B4B1A68BB69DB4309491340D0
:10210C000B607B6A01337B623B681A687B6A22FA3C
:10211C0003F3002B7FF496AE00BF00BF2C37BD46F7
:10212C0080BC70470004014080B485B000AF78607B
:10213C000B467B807B689A687B881340002B02D00F
:10214C000123FB7301E00023FB73FB7B1846143760
:10215C00BD4680BC704780B483B000AF78600B463E
:10216C007B8013467B707B78002B03D07A887B684E
:10217C001A6103E07B881A047B681A6100BF0C3774
:10218C00BD4680BC704780B485B000AF78600B460C
:10219C007B807B68DB68FB607A88FB6813401A04E1
:1021AC00FB68D9437B880B401A437B681A6100BFDC
:1021BC001437BD4680BC704780B586B000AF7860E0
:1021CC007B68002B01D1012372E27B681B6803F052
:1021DC000103002B00F08780924B5B6803F00C032B
:1021EC00042B0CD08F4B5B6803F00C03082B12D123
:1021FC008C4B5B6803F48033B3F5803F0BD1894B78
:10220C001B6803F40033002B6CD07B685B68002BDD
:10221C0068D101234CE27B685B68B3F5803F06D143
:10222C00804B1B687F4A43F4803313602EE07B683D
:10223C005B68002B0CD17B4B1B687A4A23F48033F0
:10224C001360784B1B68774A23F4802313601DE0DE
:10225C007B685B68B3F5A02F0CD1724B1B68714A7D
:10226C0043F4802313606F4B1B686E4A43F4803336
:10227C0013600BE06B4B1B686A4A23F480331360CA
:10228C00684B1B68674A23F4802313607B685B6888
:10229C00002B13D0FFF7B4FC386108E0FFF7B0FC5B
:1022AC0002463B69D31A642B01D9032300E25D4B30
:1022BC001B6803F40033002BF0D014E0FFF7A0FCF4
:1022CC00386108E0FFF79CFC02463B69D31A642B8B
:1022DC0001D90323ECE1534B1B6803F40033002BAF
:1022EC00F0D100E000BF7B681B6803F00203002BF9
:1022FC0063D04C4B5B6803F00C03002B0BD0494BA9
:10230C005B6803F00C03082B1CD1464B5B6803F491
:10231C008033002B16D1434B1B6803F00203002BB8
:10232C0005D07B681B69012B01D00123C0E13D4B1B
:10233C001B6823F0F8027B685B69DB0039491343A7
:10234C000B603AE07B681B69002B20D0364B0122D6
:10235C001A60FFF755FC386108E0FFF751FC0246A4
:10236C003B69D31A022B01D90323A1E12D4B1B6826
:10237C0003F00203002BF0D02A4B1B6823F0F80269
:10238C007B685B69DB00274913430B6015E0264B28
:10239C0000221A60FFF734FC386108E0FFF730FCCC
:1023AC0002463B69D31A022B01D9032380E11D4B52
:1023BC001B6803F00203002BF0D17B681B6803F051
:1023CC000803002B3AD07B689B69002B19D0174B64
:1023DC0001221A60FFF714FC386108E0FFF710FCCB
:1023EC0002463B69D31A022B01D9032360E10D4B42
:1023FC005B6A03F00203002BF0D0012000F09CFA82
:10240C001CE00A4B00221A60FFF7FAFB38610FE060
:10241C00FFF7F6FB02463B69D31A022B08D90323BC
:10242C0046E100BF001002400000424280044242DC
:10243C00924B5B6A03F00203002BE9D17B681B68AB
:10244C0003F00403002B00F0A6800023FB758B4BDC
:10245C00DB6903F08053002B0DD1884BDB69874A75
:10246C0043F08053D361854BDB6903F08053BB6031
:10247C00BB680123FB75824B1B6803F48073002B34
:10248C0018D17F4B1B687E4A43F480731360FFF7AF
:10249C00B7FB386108E0FFF7B3FB02463B69D31A80
:1024AC00642B01D9032303E1754B1B6803F4807380
:1024BC00002BF0D07B68DB68012B06D16F4B1B6ABD
:1024CC006E4A43F0010313622DE07B68DB68002B3E
:1024DC000CD16A4B1B6A694A23F001031362674BE8
:1024EC001B6A664A23F0040313621CE07B68DB68FA
:1024FC00052B0CD1614B1B6A604A43F00403136239
:10250C005E4B1B6A5D4A43F0010313620BE05B4BAD
:10251C001B6A5A4A23F001031362584B1B6A574A31
:10252C0023F0040313627B68DB68002B15D0FFF7E4
:10253C0067FB38610AE0FFF763FB02463B69D31A7D
:10254C0041F28832934201D90323B1E04B4B1B6A11
:10255C0003F00203002BEED014E0FFF751FB3861BF
:10256C000AE0FFF74DFB02463B69D31A41F2883271
:10257C00934201D903239BE0404B1B6A03F00203F7
:10258C00002BEED1FB7D012B05D13C4BDB693B4A8B
:10259C0023F08053D3617B68DB69002B00F08780CC
:1025AC00364B5B6803F00C03082B61D07B68DB694E
:1025BC00022B46D1334B00221A60FFF721FB386106
:1025CC0008E0FFF71DFB02463B69D31A022B01D929
:1025DC0003236DE0294B1B6803F00073002BF0D133
:1025EC007B681B6AB3F5803F08D1244B5B6823F4EE
:1025FC0000327B689B68214913434B601F4B5B681F
:10260C0023F474127B68196A7B685B6A0B431B4961
:10261C0013434B601B4B01221A60FFF7F1FA386130
:10262C0008E0FFF7EDFA02463B69D31A022B01D9F9
:10263C0003233DE0114B1B6803F00073002BF0D01B
:10264C0035E0104B00221A60FFF7DAFA386108E027
:10265C00FFF7D6FA02463B69D31A022B01D90323A2
:10266C0026E0064B1B6803F00073002BF0D11EE034
:10267C007B68DB69012B07D1012319E000100240B4
:10268C0000700040600042420B4B5B68FB60FB68D3
:10269C0003F480327B681B6A9A4206D1FB6803F410
:1026AC0070127B685B6A9A4201D0012300E0002320
:1026BC0018461837BD4680BD0010024080B584B066
:1026CC0000AF786039607B68002B01D10123D0E02A
:1026DC006A4B1B6803F007033A689A4210D9674BA0
:1026EC001B6823F0070265493B6813430B60634B7F
:1026FC001B6803F007033A689A4201D00123B8E043
:10270C007B681B6803F00203002B20D07B681B68DE
:10271C0003F00403002B05D0594B5B68584A43F473
:10272C00E06353607B681B6803F00803002B05D043
:10273C00534B5B68524A43F460535360504B5B6895
:10274C0023F0F0027B689B684D4913434B607B6818
:10275C001B6803F00103002B40D07B685B68012BE6
:10276C0007D1474B1B6803F40033002B15D1012311
:10277C007FE07B685B68022B07D1414B1B6803F041
:10278C000073002B09D1012373E03D4B1B6803F050
:10279C000203002B01D101236BE0394B5B6823F062
:1027AC0003027B685B68364913434B60FFF728FADA
:1027BC00F8600AE0FFF724FA0246FB68D31A41F2EC
:1027CC008832934201D9032353E02D4B5B6803F00D
:1027DC000C027B685B689B009A42EBD1274B1B6811
:1027EC0003F007033A689A4210D2244B1B6823F07B
:1027FC00070222493B6813430B60204B1B6803F014
:10280C0007033A689A4201D0012332E07B681B68C7
:10281C0003F00403002B08D0194B5B6823F4E0622F
:10282C007B68DB68164913434B607B681B6803F0BD
:10283C000803002B09D0124B5B6823F460527B68B1
:10284C001B69DB000E4913434B6000F021F8024674
:10285C000B4B5B681B0903F00F030A49CB5C22FA94
:10286C0003F3094A1360094B1B681846FFF786F9F6
:10287C00002318461037BD4680BD00BF0020024023
:10288C0000100240B43100086C00002070000020E1
:10289C0080B487B000AF0023FB600023BB60002333
:1028AC007B6100237B6000233B611E4B5B68FB60FC
:1028BC00FB6803F00C03042B02D0082B03D027E099
:1028CC00194B3B6127E0FB689B0C03F00F03174A85
:1028DC00D35C7B60FB6803F48033002B10D0114B6E
:1028EC005B685B0C03F00103114AD35CBB607B6833
:1028FC000D4A03FB02F2BB68B2FBF3F37B6104E00D
:10290C007B680C4A02FB03F37B617B693B6102E051
:10291C00054B3B6100BF3B6918461C37BD4680BC6C
:10292C00704700BF0010024000127A00C43100084A
:10293C00D431000800093D0080B485B000AF786048
:10294C000A4B1B680A4AA2FB03235B0A7A6802FB48
:10295C0003F3FB6000BFFB685A1EFA60002BF9D131
:10296C0000BF00BF1437BD4680BC70476C00002010
:10297C00D34D621080B582B000AF78607B68002BBD
:10298C0001D1012341E07B6893F83D30DBB2002B91
:10299C0006D17B68002283F83C207868FEF7ACFEF9
:1029AC007B68022283F83D207B681A687B680433BD
:1029BC001946104600F056FA7B68012283F846202F
:1029CC007B68012283F83E207B68012283F83F203C
:1029DC007B68012283F840207B68012283F8412028
:1029EC007B68012283F842207B68012283F8432014
:1029FC007B68012283F844207B68012283F8452000
:102A0C007B68012283F83D20002318460837BD4619
:102A1C0080BD000080B485B000AF78607B6893F80F
:102A2C003D30DBB2012B01D0012335E07B68022263
:102A3C0083F83D207B681B68DA687B681B6842F072
:102A4C000102DA607B681B68164A934209D07B68E6
:102A5C001B68B3F1804F04D07B681B68124A934209
:102A6C0011D17B681B689B6803F00703FB60FB6854
:102A7C00062B10D07B681B681A687B681B6842F0B9
:102A8C0001021A6007E07B681B681A687B681B6888
:102A9C0042F001021A60002318461437BD4680BC70
:102AAC00704700BF002C01400004004080B584B08A
:102ABC0000AF78607B681B68DB68FB607B681B6819
:102ACC001B69BB60BB6803F00203002B20D0FB68C2
:102ADC0003F00203002B1BD07B681B686FF0020213
:102AEC001A617B6801221A777B681B689B6903F06B
:102AFC000303002B03D0786800F098F905E07868A0
:102B0C0000F08BF9786800F09AF97B6800221A774C
:102B1C00BB6803F00403002B20D0FB6803F0040314
:102B2C00002B1BD07B681B686FF004021A617B685A
:102B3C0002221A777B681B689B6903F44073002B95
:102B4C0003D0786800F072F905E0786800F065F958
:102B5C00786800F074F97B6800221A77BB6803F080
:102B6C000803002B20D0FB6803F00803002B1BD0BC
:102B7C007B681B686FF008021A617B6804221A7765
:102B8C007B681B68DB6903F00303002B03D07868B8
:102B9C0000F04CF905E0786800F03FF9786800F037
:102BAC004EF97B6800221A77BB6803F01003002BE8
:102BBC0020D0FB6803F01003002B1BD07B681B6834
:102BCC006FF010021A617B6808221A777B681B6809
:102BDC00DB6903F44073002B03D0786800F026F90E
:102BEC0005E0786800F019F9786800F028F97B683E
:102BFC0000221A77BB6803F00103002B0CD0FB6892
:102C0C0003F00103002B07D07B681B686FF00102F7
:102C1C001A617868FEF7DCFCBB6803F08003002BBC
:102C2C000CD0FB6803F08003002B07D07B681B687B
:102C3C006FF080021A61786800F06FFABB6803F0DD
:102C4C004003002B0CD0FB6803F04003002B07D093
:102C5C007B681B686FF040021A61786800F0F8F826
:102C6C00BB6803F02003002B0CD0FB6803F020039F
:102C7C00002B07D07B681B686FF020021A61786804
:102C8C0000F042FA00BF1037BD4680BD80B584B05D
:102C9C0000AF786039600023FB737B6893F83C309D
:102CAC00012B01D10223B4E07B68012283F83C2084
:102CBC007B68022283F83D207B681B689B68BB60A5
:102CCC00BB6823F07703BB60BB6823F47F43BB6016
:102CDC007B681B68BA689A603B681B68B3F5005F39
:102CEC003ED0B3F5005F00F28780B3F5805F00F053
:102CFC008680B3F5805F7FD8702B1AD0702B7BD871
:102D0C00602B50D0602B77D8502B3CD0502B73D8E5
:102D1C00402B58D0402B6FD8302B64D0302B6BD835
:102D2C00202B60D0202B67D8002B5CD0102B5AD0D6
:102D3C0062E07B6818683B6899683B685A683B6836
:102D4C00DB6800F06AF97B681B689B68BB60BB683A
:102D5C0043F07703BB607B681B68BA689A604FE0EE
:102D6C007B6818683B6899683B685A683B68DB6805
:102D7C0000F053F97B681B689A687B681B6842F407
:102D8C0080429A603CE07B6818683B6859683B68F5
:102D9C00DB681A4600F0CAF87B681B68502118469D
:102DAC0000F021F92CE07B6818683B6859683B6897
:102DBC00DB681A4600F0E8F87B681B68602118464F
:102DCC0000F011F91CE07B6818683B6859683B6897
:102DDC00DB681A4600F0AAF87B681B68402118468D
:102DEC0000F001F90CE07B681A683B681B68194617
:102DFC00104600F0F8F803E00123FB7300E000BF7D
:102E0C007B68012283F83D207B68002283F83C20FC
:102E1C00FB7B18461037BD4680BD80B483B000AF35
:102E2C00786000BF0C37BD4680BC704780B483B05F
:102E3C0000AF786000BF0C37BD4680BC704780B4D3
:102E4C0083B000AF786000BF0C37BD4680BC7047C4
:102E5C0080B483B000AF786000BF0C37BD4680BC37
:102E6C007047000080B485B000AF786039607B6833
:102E7C001B68FB607B682B4A934207D07B68B3F1DD
:102E8C00804F03D07B68284A934208D1FB6823F01B
:102E9C007003FB603B685B68FA681343FB607B68FC
:102EAC00204A934207D07B68B3F1804F03D07B68F4
:102EBC001D4A934208D1FB6823F44073FB603B68C6
:102ECC00DB68FA681343FB60FB6823F080023B6805
:102EDC005B691343FB607B68FA681A603B689A680D
:102EEC007B68DA623B681A687B689A627B680D4A79
:102EFC00934203D13B681A697B681A637B68012291
:102F0C005A617B681B6903F00103002B05D07B68B9
:102F1C001B6923F001027B681A6100BF1437BD46A0
:102F2C0080BC7047002C01400004004080B487B086
:102F3C0000AFF860B9607A60FB681B6A7B61FB6864
:102F4C001B6A23F00102FB681A62FB689B693B61F8
:102F5C003B6923F0F0033B617B681B013A69134327
:102F6C003B617B6923F00A037B617A69BB6813437D
:102F7C007B61FB683A699A61FB687A691A6200BFE7
:102F8C001C37BD4680BC704780B487B000AFF8607A
:102F9C00B9607A60FB681B6A7B61FB681B6A23F073
:102FAC001002FB681A62FB689B693B613B6923F466
:102FBC0070433B617B681B033A6913433B617B693C
:102FCC0023F0A0037B61BB681B017A6913437B610F
:102FDC00FB683A699A61FB687A691A6200BF1C3710
:102FEC00BD4680BC704780B485B000AF7860396056
:102FFC007B689B68FB60FB6823F07003FB603A689E
:10300C00FB68134343F00703FB607B68FA689A6024
:10301C0000BF1437BD4680BC704780B487B000AF8A
:10302C00F860B9607A603B60FB689B687B617B6988
:10303C0023F47F437B613B681A027B681A43BB68AD
:10304C0013437A6913437B61FB687A699A6000BF0A
:10305C001C37BD4680BC704780B485B000AF78602B
:10306C0039607B6893F83C30012B01D1022341E09D
:10307C007B68012283F83C207B68022283F83D2088
:10308C007B681B685B68FB607B681B689B68BB602C
:10309C00FB6823F07003FB603B681B68FA68134302
:1030AC00FB607B681B68FA685A607B681B68144A73
:1030BC00934209D07B681B68B3F1804F04D07B68C6
:1030CC001B68104A93420CD1BB6823F08003BB6091
:1030DC003B685B68BA681343BB607B681B68BA6863
:1030EC009A607B68012283F83D207B68002283F87C
:1030FC003C20002318461437BD4680BC704700BFE7
:10310C00002C01400004004080B483B000AF786014
:10311C0000BF0C37BD4680BC704780B483B000AF95
:10312C00786000BF0C37BD4680BC70470346024434
:10313C00934200D1704703F8011BF9E770B50026E4
:10314C000C4D0D4C641BA410A64209D100F01AF8CA
:10315C0000260A4D0A4C641BA410A64205D170BD72
:10316C0055F8043B98470136EEE755F8043B984771
:10317C000136F2E7D8310008D8310008D831000800
:10318C00DC310008F8B500BFF8BC08BC9E4670479F
:0C319C00F8B500BFF8BC08BC9E467047A8
:1031A800C0F9A4B0999282F8809000000000000055
:1031B80000000000010203040607080902030405D1
:1031C800060708090A0B0C0D0E0F1010010200006B
:0431D80031010008B9
:0431DC000D010008D9
:1031E00001000000010000000100000001000000DB
:1031F00001000000010000000100000001000000CB
:1032000001000000010000000100000001000000BA
:1032100001000000010000000100000001000000AA
:10322000F4010000F4010000F4010000F4010000CA
:103230000100000001000000010000001027000054
:10324000B80B0000581B00000100000000127A00BB
:08325000100000000100000065
:0400000508001B11C3
:00000001FF
